{
  "abi": [
    {
      "type": "constructor",
      "inputs": [],
      "stateMutability": "nonpayable"
    },
    {
      "type": "function",
      "name": "DEFAULT_ADMIN_ROLE",
      "inputs": [],
      "outputs": [
        {
          "name": "",
          "type": "bytes32",
          "internalType": "bytes32"
        }
      ],
      "stateMutability": "view"
    },
    {
      "type": "function",
      "name": "MINTER_ROLE",
      "inputs": [],
      "outputs": [
        {
          "name": "",
          "type": "bytes32",
          "internalType": "bytes32"
        }
      ],
      "stateMutability": "view"
    },
    {
      "type": "function",
      "name": "achievementRequirements",
      "inputs": [
        {
          "name": "",
          "type": "string",
          "internalType": "string"
        }
      ],
      "outputs": [
        {
          "name": "",
          "type": "uint256",
          "internalType": "uint256"
        }
      ],
      "stateMutability": "view"
    },
    {
      "type": "function",
      "name": "achievements",
      "inputs": [
        {
          "name": "",
          "type": "string",
          "internalType": "string"
        }
      ],
      "outputs": [
        {
          "name": "id",
          "type": "string",
          "internalType": "string"
        },
        {
          "name": "name",
          "type": "string",
          "internalType": "string"
        },
        {
          "name": "description",
          "type": "string",
          "internalType": "string"
        },
        {
          "name": "category",
          "type": "uint8",
          "internalType": "enum AchievementNFT.AchievementCategory"
        },
        {
          "name": "rarity",
          "type": "uint8",
          "internalType": "enum AchievementNFT.AchievementRarity"
        },
        {
          "name": "xpReward",
          "type": "uint256",
          "internalType": "uint256"
        },
        {
          "name": "combatPowerReward",
          "type": "uint256",
          "internalType": "uint256"
        },
        {
          "name": "exists",
          "type": "bool",
          "internalType": "bool"
        },
        {
          "name": "active",
          "type": "bool",
          "internalType": "bool"
        },
        {
          "name": "metadataURI",
          "type": "string",
          "internalType": "string"
        }
      ],
      "stateMutability": "view"
    },
    {
      "type": "function",
      "name": "approve",
      "inputs": [
        {
          "name": "to",
          "type": "address",
          "internalType": "address"
        },
        {
          "name": "tokenId",
          "type": "uint256",
          "internalType": "uint256"
        }
      ],
      "outputs": [],
      "stateMutability": "nonpayable"
    },
    {
      "type": "function",
      "name": "balanceOf",
      "inputs": [
        {
          "name": "owner",
          "type": "address",
          "internalType": "address"
        }
      ],
      "outputs": [
        {
          "name": "",
          "type": "uint256",
          "internalType": "uint256"
        }
      ],
      "stateMutability": "view"
    },
    {
      "type": "function",
      "name": "batchCreateAchievements",
      "inputs": [
        {
          "name": "achievementIds",
          "type": "string[]",
          "internalType": "string[]"
        },
        {
          "name": "names",
          "type": "string[]",
          "internalType": "string[]"
        },
        {
          "name": "descriptions",
          "type": "string[]",
          "internalType": "string[]"
        },
        {
          "name": "categories",
          "type": "uint8[]",
          "internalType": "enum AchievementNFT.AchievementCategory[]"
        },
        {
          "name": "rarities",
          "type": "uint8[]",
          "internalType": "enum AchievementNFT.AchievementRarity[]"
        },
        {
          "name": "xpRewards",
          "type": "uint256[]",
          "internalType": "uint256[]"
        },
        {
          "name": "combatPowerRewards",
          "type": "uint256[]",
          "internalType": "uint256[]"
        },
        {
          "name": "requirements",
          "type": "uint256[]",
          "internalType": "uint256[]"
        },
        {
          "name": "metadataURIs",
          "type": "string[]",
          "internalType": "string[]"
        }
      ],
      "outputs": [],
      "stateMutability": "nonpayable"
    },
    {
      "type": "function",
      "name": "batchMintAchievements",
      "inputs": [
        {
          "name": "user",
          "type": "address",
          "internalType": "address"
        },
        {
          "name": "achievementIds",
          "type": "string[]",
          "internalType": "string[]"
        }
      ],
      "outputs": [
        {
          "name": "",
          "type": "uint256[]",
          "internalType": "uint256[]"
        }
      ],
      "stateMutability": "nonpayable"
    },
    {
      "type": "function",
      "name": "createAchievement",
      "inputs": [
        {
          "name": "achievementId",
          "type": "string",
          "internalType": "string"
        },
        {
          "name": "name",
          "type": "string",
          "internalType": "string"
        },
        {
          "name": "description",
          "type": "string",
          "internalType": "string"
        },
        {
          "name": "category",
          "type": "uint8",
          "internalType": "enum AchievementNFT.AchievementCategory"
        },
        {
          "name": "rarity",
          "type": "uint8",
          "internalType": "enum AchievementNFT.AchievementRarity"
        },
        {
          "name": "xpReward",
          "type": "uint256",
          "internalType": "uint256"
        },
        {
          "name": "combatPowerReward",
          "type": "uint256",
          "internalType": "uint256"
        },
        {
          "name": "requirement",
          "type": "uint256",
          "internalType": "uint256"
        },
        {
          "name": "metadataURI",
          "type": "string",
          "internalType": "string"
        }
      ],
      "outputs": [],
      "stateMutability": "nonpayable"
    },
    {
      "type": "function",
      "name": "getAchievementStats",
      "inputs": [],
      "outputs": [
        {
          "name": "totalMinted",
          "type": "uint256",
          "internalType": "uint256"
        },
        {
          "name": "uniqueHolders",
          "type": "uint256",
          "internalType": "uint256"
        },
        {
          "name": "achievementTypes",
          "type": "uint256",
          "internalType": "uint256"
        }
      ],
      "stateMutability": "view"
    },
    {
      "type": "function",
      "name": "getAchievementsByCategory",
      "inputs": [
        {
          "name": "category",
          "type": "uint8",
          "internalType": "enum AchievementNFT.AchievementCategory"
        }
      ],
      "outputs": [
        {
          "name": "",
          "type": "string[]",
          "internalType": "string[]"
        }
      ],
      "stateMutability": "view"
    },
    {
      "type": "function",
      "name": "getAllAchievements",
      "inputs": [
        {
          "name": "offset",
          "type": "uint256",
          "internalType": "uint256"
        },
        {
          "name": "limit",
          "type": "uint256",
          "internalType": "uint256"
        }
      ],
      "outputs": [
        {
          "name": "ids",
          "type": "string[]",
          "internalType": "string[]"
        },
        {
          "name": "names",
          "type": "string[]",
          "internalType": "string[]"
        },
        {
          "name": "categories",
          "type": "uint8[]",
          "internalType": "uint8[]"
        },
        {
          "name": "rarities",
          "type": "uint8[]",
          "internalType": "uint8[]"
        },
        {
          "name": "actives",
          "type": "bool[]",
          "internalType": "bool[]"
        },
        {
          "name": "total",
          "type": "uint256",
          "internalType": "uint256"
        }
      ],
      "stateMutability": "view"
    },
    {
      "type": "function",
      "name": "getApproved",
      "inputs": [
        {
          "name": "tokenId",
          "type": "uint256",
          "internalType": "uint256"
        }
      ],
      "outputs": [
        {
          "name": "",
          "type": "address",
          "internalType": "address"
        }
      ],
      "stateMutability": "view"
    },
    {
      "type": "function",
      "name": "getRecentMints",
      "inputs": [],
      "outputs": [
        {
          "name": "tokenIds",
          "type": "uint256[]",
          "internalType": "uint256[]"
        },
        {
          "name": "recipients",
          "type": "address[]",
          "internalType": "address[]"
        },
        {
          "name": "achievementIds",
          "type": "string[]",
          "internalType": "string[]"
        },
        {
          "name": "timestamps",
          "type": "uint256[]",
          "internalType": "uint256[]"
        }
      ],
      "stateMutability": "view"
    },
    {
      "type": "function",
      "name": "getRoleAdmin",
      "inputs": [
        {
          "name": "role",
          "type": "bytes32",
          "internalType": "bytes32"
        }
      ],
      "outputs": [
        {
          "name": "",
          "type": "bytes32",
          "internalType": "bytes32"
        }
      ],
      "stateMutability": "view"
    },
    {
      "type": "function",
      "name": "getUserAchievementDetails",
      "inputs": [
        {
          "name": "user",
          "type": "address",
          "internalType": "address"
        },
        {
          "name": "tokenId",
          "type": "uint256",
          "internalType": "uint256"
        }
      ],
      "outputs": [
        {
          "name": "",
          "type": "tuple",
          "internalType": "struct AchievementNFT.Achievement",
          "components": [
            {
              "name": "id",
              "type": "string",
              "internalType": "string"
            },
            {
              "name": "name",
              "type": "string",
              "internalType": "string"
            },
            {
              "name": "description",
              "type": "string",
              "internalType": "string"
            },
            {
              "name": "category",
              "type": "uint8",
              "internalType": "enum AchievementNFT.AchievementCategory"
            },
            {
              "name": "rarity",
              "type": "uint8",
              "internalType": "enum AchievementNFT.AchievementRarity"
            },
            {
              "name": "xpReward",
              "type": "uint256",
              "internalType": "uint256"
            },
            {
              "name": "combatPowerReward",
              "type": "uint256",
              "internalType": "uint256"
            },
            {
              "name": "exists",
              "type": "bool",
              "internalType": "bool"
            },
            {
              "name": "active",
              "type": "bool",
              "internalType": "bool"
            },
            {
              "name": "metadataURI",
              "type": "string",
              "internalType": "string"
            }
          ]
        }
      ],
      "stateMutability": "view"
    },
    {
      "type": "function",
      "name": "getUserAchievementStats",
      "inputs": [
        {
          "name": "user",
          "type": "address",
          "internalType": "address"
        }
      ],
      "outputs": [
        {
          "name": "totalAchievements",
          "type": "uint256",
          "internalType": "uint256"
        },
        {
          "name": "totalXP",
          "type": "uint256",
          "internalType": "uint256"
        },
        {
          "name": "totalCombatPower",
          "type": "uint256",
          "internalType": "uint256"
        },
        {
          "name": "completionRate",
          "type": "uint256",
          "internalType": "uint256"
        }
      ],
      "stateMutability": "view"
    },
    {
      "type": "function",
      "name": "getUserAchievementToken",
      "inputs": [
        {
          "name": "user",
          "type": "address",
          "internalType": "address"
        },
        {
          "name": "achievementId",
          "type": "string",
          "internalType": "string"
        }
      ],
      "outputs": [
        {
          "name": "",
          "type": "uint256",
          "internalType": "uint256"
        }
      ],
      "stateMutability": "view"
    },
    {
      "type": "function",
      "name": "getUserAchievements",
      "inputs": [
        {
          "name": "user",
          "type": "address",
          "internalType": "address"
        }
      ],
      "outputs": [
        {
          "name": "",
          "type": "uint256[]",
          "internalType": "uint256[]"
        }
      ],
      "stateMutability": "view"
    },
    {
      "type": "function",
      "name": "grantMinterRole",
      "inputs": [
        {
          "name": "account",
          "type": "address",
          "internalType": "address"
        }
      ],
      "outputs": [],
      "stateMutability": "nonpayable"
    },
    {
      "type": "function",
      "name": "grantRole",
      "inputs": [
        {
          "name": "role",
          "type": "bytes32",
          "internalType": "bytes32"
        },
        {
          "name": "account",
          "type": "address",
          "internalType": "address"
        }
      ],
      "outputs": [],
      "stateMutability": "nonpayable"
    },
    {
      "type": "function",
      "name": "hasAchievement",
      "inputs": [
        {
          "name": "user",
          "type": "address",
          "internalType": "address"
        },
        {
          "name": "achievementId",
          "type": "string",
          "internalType": "string"
        }
      ],
      "outputs": [
        {
          "name": "",
          "type": "bool",
          "internalType": "bool"
        }
      ],
      "stateMutability": "view"
    },
    {
      "type": "function",
      "name": "hasRole",
      "inputs": [
        {
          "name": "role",
          "type": "bytes32",
          "internalType": "bytes32"
        },
        {
          "name": "account",
          "type": "address",
          "internalType": "address"
        }
      ],
      "outputs": [
        {
          "name": "",
          "type": "bool",
          "internalType": "bool"
        }
      ],
      "stateMutability": "view"
    },
    {
      "type": "function",
      "name": "incrementUserProgress",
      "inputs": [
        {
          "name": "user",
          "type": "address",
          "internalType": "address"
        },
        {
          "name": "achievementId",
          "type": "string",
          "internalType": "string"
        },
        {
          "name": "amount",
          "type": "uint256",
          "internalType": "uint256"
        }
      ],
      "outputs": [],
      "stateMutability": "nonpayable"
    },
    {
      "type": "function",
      "name": "isApprovedForAll",
      "inputs": [
        {
          "name": "owner",
          "type": "address",
          "internalType": "address"
        },
        {
          "name": "operator",
          "type": "address",
          "internalType": "address"
        }
      ],
      "outputs": [
        {
          "name": "",
          "type": "bool",
          "internalType": "bool"
        }
      ],
      "stateMutability": "view"
    },
    {
      "type": "function",
      "name": "mintAchievement",
      "inputs": [
        {
          "name": "user",
          "type": "address",
          "internalType": "address"
        },
        {
          "name": "achievementId",
          "type": "string",
          "internalType": "string"
        }
      ],
      "outputs": [
        {
          "name": "",
          "type": "uint256",
          "internalType": "uint256"
        }
      ],
      "stateMutability": "nonpayable"
    },
    {
      "type": "function",
      "name": "name",
      "inputs": [],
      "outputs": [
        {
          "name": "",
          "type": "string",
          "internalType": "string"
        }
      ],
      "stateMutability": "view"
    },
    {
      "type": "function",
      "name": "owner",
      "inputs": [],
      "outputs": [
        {
          "name": "",
          "type": "address",
          "internalType": "address"
        }
      ],
      "stateMutability": "view"
    },
    {
      "type": "function",
      "name": "ownerOf",
      "inputs": [
        {
          "name": "tokenId",
          "type": "uint256",
          "internalType": "uint256"
        }
      ],
      "outputs": [
        {
          "name": "",
          "type": "address",
          "internalType": "address"
        }
      ],
      "stateMutability": "view"
    },
    {
      "type": "function",
      "name": "pause",
      "inputs": [],
      "outputs": [],
      "stateMutability": "nonpayable"
    },
    {
      "type": "function",
      "name": "paused",
      "inputs": [],
      "outputs": [
        {
          "name": "",
          "type": "bool",
          "internalType": "bool"
        }
      ],
      "stateMutability": "view"
    },
    {
      "type": "function",
      "name": "renounceOwnership",
      "inputs": [],
      "outputs": [],
      "stateMutability": "nonpayable"
    },
    {
      "type": "function",
      "name": "renounceRole",
      "inputs": [
        {
          "name": "role",
          "type": "bytes32",
          "internalType": "bytes32"
        },
        {
          "name": "callerConfirmation",
          "type": "address",
          "internalType": "address"
        }
      ],
      "outputs": [],
      "stateMutability": "nonpayable"
    },
    {
      "type": "function",
      "name": "revokeMinterRole",
      "inputs": [
        {
          "name": "account",
          "type": "address",
          "internalType": "address"
        }
      ],
      "outputs": [],
      "stateMutability": "nonpayable"
    },
    {
      "type": "function",
      "name": "revokeRole",
      "inputs": [
        {
          "name": "role",
          "type": "bytes32",
          "internalType": "bytes32"
        },
        {
          "name": "account",
          "type": "address",
          "internalType": "address"
        }
      ],
      "outputs": [],
      "stateMutability": "nonpayable"
    },
    {
      "type": "function",
      "name": "safeTransferFrom",
      "inputs": [
        {
          "name": "from",
          "type": "address",
          "internalType": "address"
        },
        {
          "name": "to",
          "type": "address",
          "internalType": "address"
        },
        {
          "name": "tokenId",
          "type": "uint256",
          "internalType": "uint256"
        }
      ],
      "outputs": [],
      "stateMutability": "nonpayable"
    },
    {
      "type": "function",
      "name": "safeTransferFrom",
      "inputs": [
        {
          "name": "from",
          "type": "address",
          "internalType": "address"
        },
        {
          "name": "to",
          "type": "address",
          "internalType": "address"
        },
        {
          "name": "tokenId",
          "type": "uint256",
          "internalType": "uint256"
        },
        {
          "name": "data",
          "type": "bytes",
          "internalType": "bytes"
        }
      ],
      "outputs": [],
      "stateMutability": "nonpayable"
    },
    {
      "type": "function",
      "name": "setApprovalForAll",
      "inputs": [
        {
          "name": "operator",
          "type": "address",
          "internalType": "address"
        },
        {
          "name": "approved",
          "type": "bool",
          "internalType": "bool"
        }
      ],
      "outputs": [],
      "stateMutability": "nonpayable"
    },
    {
      "type": "function",
      "name": "supportsInterface",
      "inputs": [
        {
          "name": "interfaceId",
          "type": "bytes4",
          "internalType": "bytes4"
        }
      ],
      "outputs": [
        {
          "name": "",
          "type": "bool",
          "internalType": "bool"
        }
      ],
      "stateMutability": "pure"
    },
    {
      "type": "function",
      "name": "symbol",
      "inputs": [],
      "outputs": [
        {
          "name": "",
          "type": "string",
          "internalType": "string"
        }
      ],
      "stateMutability": "view"
    },
    {
      "type": "function",
      "name": "toggleAchievementActive",
      "inputs": [
        {
          "name": "achievementId",
          "type": "string",
          "internalType": "string"
        }
      ],
      "outputs": [],
      "stateMutability": "nonpayable"
    },
    {
      "type": "function",
      "name": "tokenAchievementId",
      "inputs": [
        {
          "name": "",
          "type": "uint256",
          "internalType": "uint256"
        }
      ],
      "outputs": [
        {
          "name": "",
          "type": "string",
          "internalType": "string"
        }
      ],
      "stateMutability": "view"
    },
    {
      "type": "function",
      "name": "tokenByIndex",
      "inputs": [
        {
          "name": "index",
          "type": "uint256",
          "internalType": "uint256"
        }
      ],
      "outputs": [
        {
          "name": "",
          "type": "uint256",
          "internalType": "uint256"
        }
      ],
      "stateMutability": "view"
    },
    {
      "type": "function",
      "name": "tokenOfOwnerByIndex",
      "inputs": [
        {
          "name": "owner",
          "type": "address",
          "internalType": "address"
        },
        {
          "name": "index",
          "type": "uint256",
          "internalType": "uint256"
        }
      ],
      "outputs": [
        {
          "name": "",
          "type": "uint256",
          "internalType": "uint256"
        }
      ],
      "stateMutability": "view"
    },
    {
      "type": "function",
      "name": "tokenURI",
      "inputs": [
        {
          "name": "tokenId",
          "type": "uint256",
          "internalType": "uint256"
        }
      ],
      "outputs": [
        {
          "name": "",
          "type": "string",
          "internalType": "string"
        }
      ],
      "stateMutability": "view"
    },
    {
      "type": "function",
      "name": "totalSupply",
      "inputs": [],
      "outputs": [
        {
          "name": "",
          "type": "uint256",
          "internalType": "uint256"
        }
      ],
      "stateMutability": "view"
    },
    {
      "type": "function",
      "name": "transferFrom",
      "inputs": [
        {
          "name": "from",
          "type": "address",
          "internalType": "address"
        },
        {
          "name": "to",
          "type": "address",
          "internalType": "address"
        },
        {
          "name": "tokenId",
          "type": "uint256",
          "internalType": "uint256"
        }
      ],
      "outputs": [],
      "stateMutability": "nonpayable"
    },
    {
      "type": "function",
      "name": "transferOwnership",
      "inputs": [
        {
          "name": "newOwner",
          "type": "address",
          "internalType": "address"
        }
      ],
      "outputs": [],
      "stateMutability": "nonpayable"
    },
    {
      "type": "function",
      "name": "unpause",
      "inputs": [],
      "outputs": [],
      "stateMutability": "nonpayable"
    },
    {
      "type": "function",
      "name": "updateAchievementMetadata",
      "inputs": [
        {
          "name": "achievementId",
          "type": "string",
          "internalType": "string"
        },
        {
          "name": "newMetadataURI",
          "type": "string",
          "internalType": "string"
        }
      ],
      "outputs": [],
      "stateMutability": "nonpayable"
    },
    {
      "type": "function",
      "name": "updateUserProgress",
      "inputs": [
        {
          "name": "user",
          "type": "address",
          "internalType": "address"
        },
        {
          "name": "achievementId",
          "type": "string",
          "internalType": "string"
        },
        {
          "name": "progress",
          "type": "uint256",
          "internalType": "uint256"
        }
      ],
      "outputs": [],
      "stateMutability": "nonpayable"
    },
    {
      "type": "function",
      "name": "userAchievements",
      "inputs": [
        {
          "name": "",
          "type": "address",
          "internalType": "address"
        },
        {
          "name": "",
          "type": "string",
          "internalType": "string"
        }
      ],
      "outputs": [
        {
          "name": "",
          "type": "uint256",
          "internalType": "uint256"
        }
      ],
      "stateMutability": "view"
    },
    {
      "type": "function",
      "name": "userProgress",
      "inputs": [
        {
          "name": "",
          "type": "address",
          "internalType": "address"
        },
        {
          "name": "",
          "type": "string",
          "internalType": "string"
        }
      ],
      "outputs": [
        {
          "name": "",
          "type": "uint256",
          "internalType": "uint256"
        }
      ],
      "stateMutability": "view"
    },
    {
      "type": "function",
      "name": "userTotalCombatPower",
      "inputs": [
        {
          "name": "",
          "type": "address",
          "internalType": "address"
        }
      ],
      "outputs": [
        {
          "name": "",
          "type": "uint256",
          "internalType": "uint256"
        }
      ],
      "stateMutability": "view"
    },
    {
      "type": "function",
      "name": "userTotalXP",
      "inputs": [
        {
          "name": "",
          "type": "address",
          "internalType": "address"
        }
      ],
      "outputs": [
        {
          "name": "",
          "type": "uint256",
          "internalType": "uint256"
        }
      ],
      "stateMutability": "view"
    },
    {
      "type": "event",
      "name": "AchievementCreated",
      "inputs": [
        {
          "name": "achievementId",
          "type": "string",
          "indexed": true,
          "internalType": "string"
        },
        {
          "name": "name",
          "type": "string",
          "indexed": false,
          "internalType": "string"
        },
        {
          "name": "category",
          "type": "uint8",
          "indexed": false,
          "internalType": "enum AchievementNFT.AchievementCategory"
        },
        {
          "name": "rarity",
          "type": "uint8",
          "indexed": false,
          "internalType": "enum AchievementNFT.AchievementRarity"
        }
      ],
      "anonymous": false
    },
    {
      "type": "event",
      "name": "AchievementMinted",
      "inputs": [
        {
          "name": "user",
          "type": "address",
          "indexed": true,
          "internalType": "address"
        },
        {
          "name": "achievementId",
          "type": "string",
          "indexed": true,
          "internalType": "string"
        },
        {
          "name": "tokenId",
          "type": "uint256",
          "indexed": false,
          "internalType": "uint256"
        },
        {
          "name": "xpReward",
          "type": "uint256",
          "indexed": false,
          "internalType": "uint256"
        },
        {
          "name": "combatPowerReward",
          "type": "uint256",
          "indexed": false,
          "internalType": "uint256"
        },
        {
          "name": "timestamp",
          "type": "uint256",
          "indexed": false,
          "internalType": "uint256"
        }
      ],
      "anonymous": false
    },
    {
      "type": "event",
      "name": "AchievementProgressUpdated",
      "inputs": [
        {
          "name": "user",
          "type": "address",
          "indexed": true,
          "internalType": "address"
        },
        {
          "name": "achievementId",
          "type": "string",
          "indexed": true,
          "internalType": "string"
        },
        {
          "name": "progress",
          "type": "uint256",
          "indexed": false,
          "internalType": "uint256"
        },
        {
          "name": "requirement",
          "type": "uint256",
          "indexed": false,
          "internalType": "uint256"
        }
      ],
      "anonymous": false
    },
    {
      "type": "event",
      "name": "Approval",
      "inputs": [
        {
          "name": "owner",
          "type": "address",
          "indexed": true,
          "internalType": "address"
        },
        {
          "name": "approved",
          "type": "address",
          "indexed": true,
          "internalType": "address"
        },
        {
          "name": "tokenId",
          "type": "uint256",
          "indexed": true,
          "internalType": "uint256"
        }
      ],
      "anonymous": false
    },
    {
      "type": "event",
      "name": "ApprovalForAll",
      "inputs": [
        {
          "name": "owner",
          "type": "address",
          "indexed": true,
          "internalType": "address"
        },
        {
          "name": "operator",
          "type": "address",
          "indexed": true,
          "internalType": "address"
        },
        {
          "name": "approved",
          "type": "bool",
          "indexed": false,
          "internalType": "bool"
        }
      ],
      "anonymous": false
    },
    {
      "type": "event",
      "name": "BatchMetadataUpdate",
      "inputs": [
        {
          "name": "_fromTokenId",
          "type": "uint256",
          "indexed": false,
          "internalType": "uint256"
        },
        {
          "name": "_toTokenId",
          "type": "uint256",
          "indexed": false,
          "internalType": "uint256"
        }
      ],
      "anonymous": false
    },
    {
      "type": "event",
      "name": "MetadataUpdate",
      "inputs": [
        {
          "name": "_tokenId",
          "type": "uint256",
          "indexed": false,
          "internalType": "uint256"
        }
      ],
      "anonymous": false
    },
    {
      "type": "event",
      "name": "OwnershipTransferred",
      "inputs": [
        {
          "name": "previousOwner",
          "type": "address",
          "indexed": true,
          "internalType": "address"
        },
        {
          "name": "newOwner",
          "type": "address",
          "indexed": true,
          "internalType": "address"
        }
      ],
      "anonymous": false
    },
    {
      "type": "event",
      "name": "Paused",
      "inputs": [
        {
          "name": "account",
          "type": "address",
          "indexed": false,
          "internalType": "address"
        }
      ],
      "anonymous": false
    },
    {
      "type": "event",
      "name": "RewardsGranted",
      "inputs": [
        {
          "name": "user",
          "type": "address",
          "indexed": true,
          "internalType": "address"
        },
        {
          "name": "xpAmount",
          "type": "uint256",
          "indexed": false,
          "internalType": "uint256"
        },
        {
          "name": "combatPowerAmount",
          "type": "uint256",
          "indexed": false,
          "internalType": "uint256"
        }
      ],
      "anonymous": false
    },
    {
      "type": "event",
      "name": "RoleAdminChanged",
      "inputs": [
        {
          "name": "role",
          "type": "bytes32",
          "indexed": true,
          "internalType": "bytes32"
        },
        {
          "name": "previousAdminRole",
          "type": "bytes32",
          "indexed": true,
          "internalType": "bytes32"
        },
        {
          "name": "newAdminRole",
          "type": "bytes32",
          "indexed": true,
          "internalType": "bytes32"
        }
      ],
      "anonymous": false
    },
    {
      "type": "event",
      "name": "RoleGranted",
      "inputs": [
        {
          "name": "role",
          "type": "bytes32",
          "indexed": true,
          "internalType": "bytes32"
        },
        {
          "name": "account",
          "type": "address",
          "indexed": true,
          "internalType": "address"
        },
        {
          "name": "sender",
          "type": "address",
          "indexed": true,
          "internalType": "address"
        }
      ],
      "anonymous": false
    },
    {
      "type": "event",
      "name": "RoleRevoked",
      "inputs": [
        {
          "name": "role",
          "type": "bytes32",
          "indexed": true,
          "internalType": "bytes32"
        },
        {
          "name": "account",
          "type": "address",
          "indexed": true,
          "internalType": "address"
        },
        {
          "name": "sender",
          "type": "address",
          "indexed": true,
          "internalType": "address"
        }
      ],
      "anonymous": false
    },
    {
      "type": "event",
      "name": "Transfer",
      "inputs": [
        {
          "name": "from",
          "type": "address",
          "indexed": true,
          "internalType": "address"
        },
        {
          "name": "to",
          "type": "address",
          "indexed": true,
          "internalType": "address"
        },
        {
          "name": "tokenId",
          "type": "uint256",
          "indexed": true,
          "internalType": "uint256"
        }
      ],
      "anonymous": false
    },
    {
      "type": "event",
      "name": "Unpaused",
      "inputs": [
        {
          "name": "account",
          "type": "address",
          "indexed": false,
          "internalType": "address"
        }
      ],
      "anonymous": false
    },
    {
      "type": "error",
      "name": "AccessControlBadConfirmation",
      "inputs": []
    },
    {
      "type": "error",
      "name": "AccessControlUnauthorizedAccount",
      "inputs": [
        {
          "name": "account",
          "type": "address",
          "internalType": "address"
        },
        {
          "name": "neededRole",
          "type": "bytes32",
          "internalType": "bytes32"
        }
      ]
    },
    {
      "type": "error",
      "name": "AchievementAlreadyExists",
      "inputs": [
        {
          "name": "achievementId",
          "type": "string",
          "internalType": "string"
        }
      ]
    },
    {
      "type": "error",
      "name": "AchievementNotActive",
      "inputs": [
        {
          "name": "achievementId",
          "type": "string",
          "internalType": "string"
        }
      ]
    },
    {
      "type": "error",
      "name": "AchievementNotFound",
      "inputs": [
        {
          "name": "achievementId",
          "type": "string",
          "internalType": "string"
        }
      ]
    },
    {
      "type": "error",
      "name": "ERC721EnumerableForbiddenBatchMint",
      "inputs": []
    },
    {
      "type": "error",
      "name": "ERC721IncorrectOwner",
      "inputs": [
        {
          "name": "sender",
          "type": "address",
          "internalType": "address"
        },
        {
          "name": "tokenId",
          "type": "uint256",
          "internalType": "uint256"
        },
        {
          "name": "owner",
          "type": "address",
          "internalType": "address"
        }
      ]
    },
    {
      "type": "error",
      "name": "ERC721InsufficientApproval",
      "inputs": [
        {
          "name": "operator",
          "type": "address",
          "internalType": "address"
        },
        {
          "name": "tokenId",
          "type": "uint256",
          "internalType": "uint256"
        }
      ]
    },
    {
      "type": "error",
      "name": "ERC721InvalidApprover",
      "inputs": [
        {
          "name": "approver",
          "type": "address",
          "internalType": "address"
        }
      ]
    },
    {
      "type": "error",
      "name": "ERC721InvalidOperator",
      "inputs": [
        {
          "name": "operator",
          "type": "address",
          "internalType": "address"
        }
      ]
    },
    {
      "type": "error",
      "name": "ERC721InvalidOwner",
      "inputs": [
        {
          "name": "owner",
          "type": "address",
          "internalType": "address"
        }
      ]
    },
    {
      "type": "error",
      "name": "ERC721InvalidReceiver",
      "inputs": [
        {
          "name": "receiver",
          "type": "address",
          "internalType": "address"
        }
      ]
    },
    {
      "type": "error",
      "name": "ERC721InvalidSender",
      "inputs": [
        {
          "name": "sender",
          "type": "address",
          "internalType": "address"
        }
      ]
    },
    {
      "type": "error",
      "name": "ERC721NonexistentToken",
      "inputs": [
        {
          "name": "tokenId",
          "type": "uint256",
          "internalType": "uint256"
        }
      ]
    },
    {
      "type": "error",
      "name": "ERC721OutOfBoundsIndex",
      "inputs": [
        {
          "name": "owner",
          "type": "address",
          "internalType": "address"
        },
        {
          "name": "index",
          "type": "uint256",
          "internalType": "uint256"
        }
      ]
    },
    {
      "type": "error",
      "name": "EnforcedPause",
      "inputs": []
    },
    {
      "type": "error",
      "name": "ExpectedPause",
      "inputs": []
    },
    {
      "type": "error",
      "name": "InvalidAchievementId",
      "inputs": []
    },
    {
      "type": "error",
      "name": "InvalidArrayLengths",
      "inputs": [
        {
          "name": "expected",
          "type": "uint256",
          "internalType": "uint256"
        },
        {
          "name": "received",
          "type": "uint256",
          "internalType": "uint256"
        }
      ]
    },
    {
      "type": "error",
      "name": "InvalidName",
      "inputs": []
    },
    {
      "type": "error",
      "name": "NotAuthorizedApprover",
      "inputs": [
        {
          "name": "caller",
          "type": "address",
          "internalType": "address"
        }
      ]
    },
    {
      "type": "error",
      "name": "OwnableInvalidOwner",
      "inputs": [
        {
          "name": "owner",
          "type": "address",
          "internalType": "address"
        }
      ]
    },
    {
      "type": "error",
      "name": "OwnableUnauthorizedAccount",
      "inputs": [
        {
          "name": "account",
          "type": "address",
          "internalType": "address"
        }
      ]
    },
    {
      "type": "error",
      "name": "RequirementNotMet",
      "inputs": [
        {
          "name": "currentProgress",
          "type": "uint256",
          "internalType": "uint256"
        },
        {
          "name": "requiredProgress",
          "type": "uint256",
          "internalType": "uint256"
        }
      ]
    },
    {
      "type": "error",
      "name": "TokenNotOwned",
      "inputs": [
        {
          "name": "user",
          "type": "address",
          "internalType": "address"
        },
        {
          "name": "tokenId",
          "type": "uint256",
          "internalType": "uint256"
        }
      ]
    },
    {
      "type": "error",
      "name": "UserAlreadyHasAchievement",
      "inputs": [
        {
          "name": "user",
          "type": "address",
          "internalType": "address"
        },
        {
          "name": "achievementId",
          "type": "string",
          "internalType": "string"
        }
      ]
    }
  ],
  "bytecode": {
    "object": "0x608034610369576001600160401b039060409080820183811182821017610353578252600f81526020906e1058da1a595d995b595b9d08139195608a1b828201528251938385018581108282111761035357845260078552664143484945564560c81b838601528151818111610353576000938454916001948584811c94168015610349575b83851014610335578190601f948581116102e7575b50839085831160011461028857889261027d575b5050600019600383901b1c191690851b1785555b86519283116102695783548481811c9116801561025f575b8282101461024b57828111610208575b50809183116001146101a657508394958293949261019b575b5050600019600383901b1c191690821b1790555b331561018557600b8054336001600160a01b03198216811790925590916001600160a01b03909116907f8be0079c531659141344cd1fd0a4f28419497f9722a3daafe3b4186f6b6457e09080a361016d3361036e565b50610177336103ed565b5051613c88908161048f8239f35b6024915190631e4fbdf760e01b82526004820152fd5b015190503880610103565b90601f198316968486528286209286905b8982106101f15750508385969798106101d8575b505050811b019055610117565b015160001960f88460031b161c191690553880806101cb565b8087859682949686015181550195019301906101b7565b8486528186208380860160051c820192848710610242575b0160051c019085905b8281106102375750506100ea565b878155018590610229565b92508192610220565b634e487b7160e01b86526022600452602486fd5b90607f16906100da565b634e487b7160e01b85526041600452602485fd5b0151905038806100ae565b8880528489208894509190601f1984168a5b878282106102d157505084116102b8575b505050811b0185556100c2565b015160001960f88460031b161c191690553880806102ab565b8385015186558b9790950194938401930161029a565b9091508780528388208580850160051c82019286861061032c575b918991869594930160051c01915b82811061031e57505061009a565b8a8155859450899101610310565b92508192610302565b634e487b7160e01b87526022600452602487fd5b93607f1693610085565b634e487b7160e01b600052604160045260246000fd5b600080fd5b6001600160a01b031660008181527f13649b2456f1b42fef0f0040b3aaeabcd21a76a0f3f5defd4f583839455116e8602052604081205490919060ff166103e957818052600c6020526040822081835260205260408220600160ff1982541617905533916000805160206141178339815191528180a4600190565b5090565b6001600160a01b031660008181527f28716b1ac0502292c83929abc9e37796cf2f7a586c58ec02e6ceeac1b694cbc360205260408120549091907f9f2df0fed2c77648de5860a4cc508cd0818c85b8b8a1ab4ceeef8d981c8956a69060ff1661048957808352600c6020526040832082845260205260408320600160ff19825416179055600080516020614117833981519152339380a4600190565b50509056fe6080604052600436101561001257600080fd5b60003560e01c806301ffc9a7146103825780630645f7471461037d57806306fdde0314610378578063081812fc14610373578063095ea7b31461036e5780630fc7e0c31461036957806312aeff08146103645780631617f2931461035f57806318160ddd1461035a57806318416d0e146103555780631c4de562146102ce57806322c0be171461035057806323b872dd1461034b578063248a9ca31461034657806328b6212d146103415780632f2ff15d1461033c5780632f745c59146103375780633512a2c21461033257806336568abe1461032d5780633dd1eb61146103285780633f4ba83a1461032357806342842e0e1461031e57806348d3904a146103195780634aab3812146103145780634f6ccce71461030f5780635c975abb1461030a5780635cd17891146103055780636352211e1461030057806369e2f0fb146102fb57806370a08231146102f6578063715018a6146102f15780638456cb59146102ec5780638da5cb5b146102e75780638e72863e146102e25780638e808bf1146102dd57806391d14854146102d857806395d89b41146102d357806395f3679e146102ce578063a217fddf146102c9578063a22cb465146102c4578063a31ea184146102bf578063ad5e93f4146102ba578063b88d4fde146102b5578063b9a626ed146102b0578063c4c0fb98146102ab578063c87b56dd146102a6578063d5391393146102a1578063d547741f1461029c578063e953710714610297578063e985e9c514610292578063f09153c41461028d578063f1264b6714610288578063f250086f14610283578063f2fde38b1461027e5763f7f410451461027957600080fd5b612368565b6122d6565b612299565b6121ba565b612068565b61200c565b611f1c565b611ead565b611e84565b611e2b565b611dee565b611dcb565b611d5e565b611d1e565b611b22565b611a61565b611a45565b610e08565b61199e565b611948565b6117ad565b61169b565b611661565b6115ff565b6115a1565b61157a565b61150b565b6114db565b61144f565b611429565b6113b9565b611388565b6112e6565b6112b2565b611240565b6111d1565b611186565b6110fe565b611076565b611034565b61101c565b610fc3565b610fac565b610ed6565b610cfd565b610c9a565b610ba1565b610904565b6108a4565b610676565b610638565b610555565b61044d565b61039e565b6001600160e01b031981160361039957565b600080fd5b346103995760203660031901126103995760206004356103bd81610387565b63ffffffff60e01b166380ac58cd60e01b811490811561042b575b811561041a575b8115610409575b81156103f8575b506040519015158152f35b6301ffc9a760e01b149050386103ed565b637965db0b60e01b811491506103e6565b63780e9d6360e01b811491506103df565b635b5e139f60e01b811491506103d8565b6001600160a01b0381160361039957565b346103995760203660031901126103995760043561046a8161043c565b60009060018060a01b03168152601360205260408120546011602052604082205491601260205260408120549060185491826104cd575b6104c99250604051948594859094939260609260808301968352602083015260408201520152565b0390f35b905060648302838104606414841517156104f4576104c9926104ee916123f9565b906104a1565b6123e3565b60005b83811061050c5750506000910152565b81810151838201526020016104fc565b90602091610535815180928185528580860191016104f9565b601f01601f1916010190565b90602061055292818152019061051c565b90565b346103995760008060031936011261063557604051908080549061057882611c41565b8085529160209160019182811690811561060857506001146105b1575b6104c9866105a5818803826107cf565b60405191829182610541565b80809550527f290decd9548b62a8d60345a988386fc84ba6bc95484008f6362f93160ef3e5635b8385106105f5575050505081016020016105a5826104c938610595565b80548686018401529382019381016105d8565b90508695506104c9969350602092506105a594915060ff191682840152151560051b820101929338610595565b80fd5b34610399576020366003190112610399576004356106558161329d565b506000526004602052602060018060a01b0360406000205416604051908152f35b34610399576040366003190112610399576004356106938161043c565b602435906106a08261329d565b3315158061076a575b8061073c575b6107205761071e926106ff9181906001600160a01b0385811691167f8c5be1e5ebec7d5bd14f71427d1e84f3dd0314c0f7b2291e5b200ac8c7c3b925600080a46000526004602052604060002090565b80546001600160a01b0319166001600160a01b03909216919091179055565b005b60405163a9fbf51f60e01b8152336004820152602490fd5b0390fd5b506001600160a01b038116600090815260056020908152604080832033845290915290205460ff16156106af565b506001600160a01b0381163314156106a9565b634e487b7160e01b600052604160045260246000fd5b61014081019081106001600160401b038211176107af57604052565b61077d565b602081019081106001600160401b038211176107af57604052565b90601f801991011681019081106001600160401b038211176107af57604052565b604051906107fd82610793565b565b6001600160401b0381116107af57601f01601f191660200190565b929192610826826107ff565b9161083460405193846107cf565b829481845281830111610399578281602093846000960137010152565b9080601f83011215610399578160206105529335910161081a565b906040600319830112610399576004356108858161043c565b91602435906001600160401b0382116103995761055291600401610851565b346103995760206108bd6108b73661086c565b90612419565b604051908152f35b906060600319830112610399576004356108de8161043c565b91602435906001600160401b038211610399576108fd91600401610851565b9060443590565b3461039957610912366108c5565b61091a6132d8565b610937610933600661092b85610d96565b015460ff1690565b1590565b610a02576109458284613277565b6109e4576001600160a01b0383166000908152601460205260409020819061096e905b84610de2565b5561097882610dbc565b546109828361298b565b60408051848152602081018490526001600160a01b038716917ff6fc9421a0cb51c25c1bcef3dfbee30aede44d332db28ff6eaf98b34b64deed091a380151591826109d9575b50506109d057005b61071e91612419565b1015905038806109c8565b50604051630c80fd1b60e21b81529182916107389160048401612783565b60405163df7efdd760e01b8152806107388460048301610541565b6001600160401b0381116107af5760051b60200190565b81601f8201121561039957803591602091610a4e84610a1d565b93610a5c60405195866107cf565b808552838086019160051b8301019280841161039957848301915b848310610a875750505050505090565b82356001600160401b038111610399578691610aa884848094890101610851565b815201920191610a77565b6005111561039957565b606435906107fd82610ab3565b608435906107fd82610ab3565b9080601f83011215610399576020908235610af181610a1d565b93610aff60405195866107cf565b81855260208086019260051b82010192831161039957602001905b828210610b28575050505090565b8380918335610b3681610ab3565b815201910190610b1a565b9080601f83011215610399576020908235610b5b81610a1d565b93610b6960405195866107cf565b81855260208086019260051b82010192831161039957602001905b828210610b92575050505090565b81358152908301908301610b84565b34610399576101203660031901126103995760046001600160401b03813581811161039957610bd39036908401610a34565b9060243581811161039957610beb9036908501610a34565b60443582811161039957610c029036908601610a34565b60643583811161039957610c199036908701610ad7565b60843584811161039957610c309036908801610ad7565b9060a43585811161039957610c489036908901610b41565b9260c43586811161039957610c609036908a01610b41565b9460e43587811161039957610c789036908b01610b41565b96610104359081116103995761071e99610c9491369101610a34565b976129ab565b34610399576000366003190112610399576020600854604051908152f35b90815180825260208080930193019160005b828110610cd8575050505090565b835185529381019392810192600101610cca565b906020610552928181520190610cb8565b3461039957604036600319011261039957600435610d1a8161043c565b6024356001600160401b03811161039957610d39903690600401610a34565b610d416132d8565b610d496133bb565b610d538151612b44565b9160005b8251811015610d885780610d77610d7060019386612b26565b5184612419565b610d818287612b26565b5201610d57565b604051806104c98682610cec565b6020610daf9181604051938285809451938492016104f9565b8101600e81520301902090565b6020610dd59181604051938285809451938492016104f9565b8101601581520301902090565b602090610dfc9282604051948386809551938492016104f9565b82019081520301902090565b34610399576020610e39610e1b3661086c565b6001600160a01b039091166000908152600f84526040902090610de2565b54604051908152f35b90808251908181526020809101926020808460051b8301019501936000915b848310610e715750505050505090565b9091929394958480610e8f600193601f198682030187528a5161051c565b9801930193019194939290610e61565b90815180825260208080930193019160005b828110610ebf575050505090565b835160ff1685529381019392810192600101610eb1565b3461039957604036600319011261039957610f45610f37610efb602435600435612c07565b9692610f29610f19604098939798519860c08a5260c08a0190610e42565b60209689820360208b0152610e42565b908782036040890152610e9f565b908582036060870152610e9f565b83810360808501526020808451928381520193019160005b828110610f71578580868960a08301520390f35b8351151585529381019392810192600101610f5d565b606090600319011261039957600435610f9f8161043c565b906024356108fd8161043c565b346103995761071e610fbd36610f87565b91612d72565b3461039957602036600319011261039957600435600052600c6020526020600160406000200154604051908152f35b602060031982011261039957600435906001600160401b0382116103995761055291600401610851565b34610399576020610e3961102f36610ff2565b610dbc565b346103995760403660031901126103995761071e6024356004356110578261043c565b80600052600c60205261107160016040600020015461339a565b6136bf565b34610399576040366003190112610399576004356110938161043c565b602435906110a081613229565b8210156110d35760018060a01b031660005260066020526040600020906000526020526020604060002054604051908152f35b60405163295f44f760e21b81526001600160a01b039190911660048201526024810191909152604490fd5b346103995761110c366108c5565b6111146132d8565b611125610933600661092b85610d96565b610a02576111338284613277565b6109e4576001600160a01b0383166000908152601460205260409020611163919061115d90610968565b5461297e565b6001600160a01b0383166000908152601460205260409020819061096e90610968565b34610399576040366003190112610399576024356111a38161043c565b336001600160a01b038216036111bf5761071e9060043561379c565b60405163334bd91960e11b8152600490fd5b346103995760203660031901126103995761071e6004356111f18161043c565b6111f9613342565b600080516020613c33833981519152600052600c6020527f28716b1ac0502292c83929abc9e37796cf2f7a586c58ec02e6ceeac1b694cbc45461123b9061339a565b613606565b34610399576000366003190112610399576112596137c8565b600b5460ff8160a01c16156112a05760ff60a01b1916600b556040513381527f5db9ee0a495bf2e6ff9c91a7834c1ba4fdd244a5e8aa4e537bd38aeae4b073aa90602090a1005b604051638dfc202b60e01b8152600490fd5b346103995761071e6112c336610f87565b90604051926112d1846107b4565b600084526112e0838383612d72565b3361398f565b3461039957610120366003190112610399576001600160401b0360043581811161039957611318903690600401610851565b60243582811161039957611330903690600401610851565b60443583811161039957611348903690600401610851565b90611351610abd565b9261135a610aca565b610104359586116103995761137661071e963690600401610851565b9460e4359460c4359460a43594612eec565b34610399576020610e3961139b3661086c565b6001600160a01b039091166000908152601484526040902090610de2565b346103995760203660031901126103995760043560085481101561140a5760209060086000527ff3f7a9fe364faab93b216da50a3214154f22a0a2b415b23a84c8169e8b636ee30154604051908152f35b6044906040519063295f44f760e21b8252600060048301526024820152fd5b3461039957600036600319011261039957602060ff600b5460a01c166040519015158152f35b346103995761145d36610ff2565b611465613342565b60ff600661147283610d96565b015416156114b6576114b2600661149b60ff8261148e86610d96565b015460081c161593610d96565b019182549061ff009060081b169061ff0019161790565b9055005b60405163df7efdd760e01b81526020600482015290819061073890602483019061051c565b346103995760203660031901126103995760206114f960043561329d565b6040516001600160a01b039091168152f35b346103995760203660031901126103995761071e60043561152b8161043c565b611533613342565b600080516020613c33833981519152600052600c6020527f28716b1ac0502292c83929abc9e37796cf2f7a586c58ec02e6ceeac1b694cbc4546115759061339a565b6136eb565b346103995760203660031901126103995760206108bd60043561159c8161043c565b613229565b3461039957600080600319360112610635576115bb6137c8565b600b80546001600160a01b0319811690915581906001600160a01b03167f8be0079c531659141344cd1fd0a4f28419497f9722a3daafe3b4186f6b6457e08280a380f35b34610399576000366003190112610399576116186137c8565b6116206133bb565b600b805460ff60a01b1916600160a01b1790556040513381527f62e78cea01bee320cd4e420270b5ea74000d11b0c9f74754ebdbfc544b05a25890602090a1005b3461039957600036600319011261039957600b546040516001600160a01b039091168152602090f35b906020610552928181520190610e42565b3461039957602080600319360112610399576004356116b981610ab3565b6116c281611eef565b6000526016602052604060002080546116da81610a1d565b916116e860405193846107cf565b81835260208301906000526020600020936000915b83831061171257604051806104c9878261168a565b600182819261172089611c7b565b8152019601920191946116fd565b92906117469095949295608085526080850190610cb8565b60209084810360208601526020808851928381520197019160005b82811061179057505050508461178291846105529697036040860152610e42565b916060818403910152610cb8565b83516001600160a01b031689529781019792810192600101611761565b346103995760008060031936011261063557600d54600a811191821561194157600a925b1561193a576117df82612beb565b6117e884612b44565b936117f281612b44565b946117fc82612b89565b61180583612b44565b9285945b8781111580611931575b15611903576040516331a9108f60e11b8152600481018290528960208083602481305afa9283918b946118d4575b5050611858575b5050611853906127a5565b611809565b966118896118cc9261187a83869b61185397611874838d612b26565b52612b26565b6001600160a01b039091169052565b6118a56118a0896000526010602052604060002090565b611c7b565b6118af8287612b26565b526118ba8186612b26565b50426118c68289612b26565b526127a5565b959089611848565b6118f4929450803d106118fc575b6118ec81836107cf565b810190613262565b913880611841565b503d6118e2565b50926104c9918589958110611920575b506040519485948561172e565b808552808652808252825285611913565b50818610611813565b60016117df565b81926117d1565b3461039957604036600319011261039957602060ff61199260243561196c8161043c565b600435600052600c845260406000209060018060a01b0316600052602052604060002090565b54166040519015158152f35b346103995760008060031936011261063557604051908060018054906119c382611c41565b808652926020926001811690811561060857506001146119ed576104c9866105a5818803826107cf565b9350600184527fb10e2d527612073b26eecdfd717e6a320cf44b4afac2b0732d9fcbe2b7fa0cf65b838510611a32575050505081016020016105a5826104c938610595565b8054868601840152938201938101611a15565b3461039957600036600319011261039957602060405160008152f35b3461039957604036600319011261039957600435611a7e8161043c565b60243580151590818103610399576001600160a01b038316928315611b095790611aca611adb9233600052600560205260406000209060018060a01b0316600052602052604060002090565b9060ff801983541691151516179055565b6040519081527f17307eab39ab6107e8899845ad3d59bd9653f200f220920489ca2b5937696c3160203392a3005b604051630b61174360e31b815260048101859052602490fd5b346103995760008060031936011261063557600d54611b4081612b44565b829060015b83811115611b73575050506104c9601854604051938493846040919493926060820195825260208201520152565b6040516331a9108f60e11b81526004810182905260208082602481305afa9182918693611c22575b5050611bb1575b50611bac906127a5565b611b45565b6001845b878110611be5575b5015611ba25785611bd9611bde9261187a611bac959987612b26565b6127a5565b9490611ba2565b611bff611bf28287612b26565b516001600160a01b031690565b6001600160a01b03848116911614611c1957600101611bb5565b50508338611bbd565b611c39929350803d106118fc576118ec81836107cf565b903880611b9b565b90600182811c92168015611c71575b6020831014611c5b57565b634e487b7160e01b600052602260045260246000fd5b91607f1691611c50565b90604051918260008254611c8e81611c41565b90818452602094600191600181169081600014611cfc5750600114611cbd575b5050506107fd925003836107cf565b600090815285812095935091905b818310611ce45750506107fd9350820101388080611cae565b85548884018501529485019487945091830191611ccb565b925050506107fd94925060ff191682840152151560051b820101388080611cae565b346103995760203660031901126103995760043560005260106020526104c9611d4a6040600020611c7b565b60405191829160208352602083019061051c565b3461039957608036600319011261039957600435611d7b8161043c565b60243590611d888261043c565b604435606435926001600160401b038411610399573660238501121561039957611dbf61071e94369060248160040135910161081a565b926112e0838383612d72565b34610399576020611de4611dde3661086c565b90613277565b6040519015158152f35b3461039957602036600319011261039957600435611e0b8161043c565b60018060a01b031660005260126020526020604060002054604051908152f35b3461039957602036600319011261039957600435611e488161329d565b50600052600a6020526104c9611e616040600020611c7b565b6000604051611e6f816107b4565b5260405191829160208352602083019061051c565b34610399576000366003190112610399576020604051600080516020613c338339815191528152f35b346103995760403660031901126103995761071e602435600435611ed08261043c565b80600052600c602052611eea60016040600020015461339a565b61379c565b60051115611ef957565b634e487b7160e01b600052602160045260246000fd5b90611f1982611eef565b52565b3461039957611fa5611f35611f3036610ff2565b610d96565b6104c9611f4182611c7b565b91611f4e60018201611c7b565b60ff611f5c60028401611c7b565b92600381015493828086169560081c16600483015490611fc1600585015493611fb3611f8f600760068901549801611c7b565b986040519d8e9d8e61014090818152019061051c565b8d810360208f01529061051c565b908b820360408d015261051c565b96611fcb81611eef565b60608a0152611fd981611eef565b608089015260a088015260c0870152818116151560e087015260081c16151561010085015283820361012085015261051c565b3461039957604036600319011261039957602060ff6119926004356120308161043c565b6024359061203d8261043c565b60018060a01b03166000526005845260406000209060018060a01b0316600052602052604060002090565b3461039957602080600319360112610399576004356120868161043c565b6001600160a01b0316600090815260136020908152604080832090518154808252918452828420928101949093905b8282106120d8576104c9856120cc818903826107cf565b60405191829182610cec565b8354865294850194600193840193909101906120b5565b9061055291602081528151906121136101409283602084015261016083019061051c565b91612147612133602086015194601f19958686830301604087015261051c565b60408601518585830301606086015261051c565b9361215a60608201516080850190611f0f565b61216c608082015160a0850190611f0f565b60a081015160c084015260c081015160e084015260e0810151612196610100918286019015159052565b810151906121ab610120928386019015159052565b0151928285030191015261051c565b34610399576040366003190112610399576004356121d78161043c565b6024359060606101206040516121ec81610793565b828152826020820152826040820152600080848301528060808301528060a08301528060c08301528060e0830152610100820152015261222b8261329d565b6001600160a01b0382811691160361226e576104c961226261225d611f306118a0866000526010602052604060002090565b6126dc565b604051918291826120ef565b6040516302682da560e41b81526001600160a01b039190911660048201526024810191909152604490fd5b34610399576020366003190112610399576004356122b68161043c565b60018060a01b031660005260116020526020604060002054604051908152f35b34610399576020366003190112610399576004356122f38161043c565b6122fb6137c8565b6001600160a01b0390811690811561234f57600b54826bffffffffffffffffffffffff60a01b821617600b55167f8be0079c531659141344cd1fd0a4f28419497f9722a3daafe3b4186f6b6457e0600080a3005b604051631e4fbdf760e01b815260006004820152602490fd5b34610399576040366003190112610399576001600160401b0360043581811161039957612399903690600401610851565b90602435908111610399576123b2903690600401610851565b6123ba613342565b60ff60066123c784610d96565b01541615610a025760076123dd61071e93610d96565b0161280a565b634e487b7160e01b600052601160045260246000fd5b8115612403570490565b634e487b7160e01b600052601260045260246000fd5b6124216132d8565b6124296133bb565b61243561225d83610d96565b9161244661093360e0850151151590565b6126b65761245b610933610100850151151590565b612699576124698183613277565b61267c5761247681610dbc565b548061262a575b5061249161248c600d546127a5565b600d55565b7f028f0af27158c91a08bdf152ca0ce956628ff213a65e8270c9ae7731f9d6b2a6600d54936124c085856133dc565b6124cf61012082015186613541565b6001600160a01b0384166000908152600f6020526040902085906124f39085610de2565b556125118361250c876000526010602052604060002090565b61280a565b6001600160a01b0384166000908152601360205260409020612534908690612949565b61255960c060a083018051801580159061261e575b612587575b50519201519361298b565b60408051878152602081019390935282019390935242606082015291926001600160a01b031691608090a390565b6001600160a01b03881660009081526011602052604090206125ac905b91825461297e565b905583820180516001600160a01b03891660009081526012602052604090206125d4906125a4565b9055815190516040805192835260208301919091526001600160a01b038916917f188fa06a3f38ab0a817661f3f459d415180c8172bec1d9b1d9542dcf047299ec9190a23861254e565b50828501511515612549565b6001600160a01b038316600090815260146020526040902061264c9083610de2565b5481811061265a575061247d565b60405163f2f5c88360e01b815260048101919091526024810191909152604490fd5b604051630c80fd1b60e21b81529182916107389160048401612783565b604051631a0ee03f60e31b81529081906107389060048301610541565b60405163df7efdd760e01b81529081906107389060048301610541565b611f1982611eef565b9061277b60076126ea6107f0565b936126f481611c7b565b855261270260018201611c7b565b602086015261271360028201611c7b565b604086015261273e60ff600383015461273182821660608a016126d3565b60081c16608087016126d3565b600481015460a0860152600581015460c0860152600681015460ff818116151560e08801526127759160081c161515610100870152565b01611c7b565b610120830152565b6001600160a01b0390911681526040602082018190526105529291019061051c565b60001981146104f45760010190565b90601f81116127c257505050565b6000916000526020600020906020601f850160051c83019410612800575b601f0160051c01915b8281106127f557505050565b8181556001016127e9565b90925082906127e0565b91909182516001600160401b0381116107af576128318161282b8454611c41565b846127b4565b602080601f831160011461287457508190612865939495600092612869575b50508160011b916000199060031b1c19161790565b9055565b015190503880612850565b90601f1983169561288a85600052602060002090565b926000905b8882106128c7575050836001959697106128ae575b505050811b019055565b015160001960f88460031b161c191690553880806128a4565b8060018596829496860151815501950193019061288f565b634e487b7160e01b600052603260045260246000fd5b60175481101561292c5760176000527fc624b66cc0138b8fabc209247f72d758e1cf3343756d543badbf24212bed8c150190600090565b6128df565b805482101561292c5760005260206000200190600090565b8054600160401b8110156107af5761296691600182018155612931565b819291549060031b91821b91600019901b1916179055565b919082018092116104f457565b6129a3906020604051928284809451938492016104f9565b810103902090565b969493929190989795986129bd613342565b8751815190808214801590612b1b575b8015612b10575b8015612b05575b8015612afa575b8015612aef575b8015612ae4575b8015612ad9575b612ab757505087519760005b898110612a1857505050505050505050509050565b808080808f81808f8f908f918f958f938f978f958f99889a97612a3c8a809a612b26565b519f612a4791612b26565b519d612a5291612b26565b5196612a5d91612b26565b612a6690612b3a565b96612a7091612b26565b612a7990612b3a565b96612a8391612b26565b5196612a8e91612b26565b5196612a9991612b26565b5196612aa491612b26565b5196612aaf98613584565b600101612a03565b60405163e04400b160e01b815260048101919091526024810191909152604490fd5b5080895114156129f7565b5080885114156129f0565b50808c5114156129e9565b5080875114156129e2565b5080865114156129db565b5080855114156129d4565b5080845114156129cd565b805182101561292c5760209160051b010190565b5161055281611eef565b90612b4e82610a1d565b612b5b60405191826107cf565b8281528092612b6c601f1991610a1d565b0190602036910137565b604051612b82816107b4565b6000815290565b90612b9382610a1d565b612ba060405191826107cf565b8281528092612bb1601f1991610a1d565b019060005b828110612bc257505050565b806060602080938501015201612bb6565b604051612bdf816107b4565b60008152906000368137565b6008198101919082116104f457565b919082039182116104f457565b916017549182841015612d3a57612c1e908461297e565b83838211612d32575b612c3091612bfa565b612c3981612b89565b93612c4382612b89565b93612c4d83612b44565b93612c5784612b44565b93612c6181612b44565b938860005b89848210612c75575050505050565b612d19610100600194612ccd85612d2a95612cbd82612ca5612c9f612c9a838f61297e565b6128f5565b50611c7b565b95612cb261225d88610d96565b966118748383612b26565b5060208401516118748383612b26565b50612cfb8d612cf387606085015192612ce584611eef565b612cee84611eef565b612b26565b9060ff169052565b612d128c612cf387608085015192612ce584611eef565b0151151590565b612d23838a612b26565b9015159052565b018990612c66565b839150612c27565b509150612d45612b76565b91612d4e612b76565b92612d57612bd3565b92612d60612bd3565b92612d69612bd3565b92959493929190565b6001600160a01b03828116929091908315612ed357612d8f6133bb565b60008581526002602052604090205485906001600160a01b03169433612ec3575b8486169586158015612e95575b6001600160a01b038516600090815260036020526040902060018154019055612df4856106ff866000526002602052604060002090565b8383897fddf252ad1be2c89b69c2b068fc378daa952ba7f163c4a11628f55a4df523b3ef600080a415612e755750612e2b82613aba565b8503612e65575b50501691828203612e4257505050565b60649350604051926364283d7b60e01b8452600484015260248301526044820152fd5b612e6e91613b12565b3884612e32565b82828803612e85575b5050612e2b565b612e8e91613a4a565b3882612e7e565b612e9e84613a26565b6001600160a01b03821660009081526003602052604090208054600019019055612dbd565b612ece823388613b59565b612db0565b604051633250574960e11b815260006004820152602490fd5b91969094979397959295612efe613342565b612f0c600661092b85610d96565b61302a5782511561301857855115613006577f22a253d5e2e88ba35bbe57f168cc28e60a8f13b25396d21aeceeaff1949fa8cc97612ff195612fe495612faa93612f546107f0565b938785528a60208601526040850152612f708b606086016126d3565b612f7d8d608086016126d3565b60a084015260c0830152600160e08301526001610100830152610120820152612fa584610d96565b613080565b80612ff6575b50612fc381612fbe8761314a565b6131b2565b612fcc81613163565b612fdf612fda6018546127a5565b601855565b61298b565b94604051938493846131f5565b0390a2565b612fff82610dbc565b5538612fb0565b60405163430f13b360e01b8152600490fd5b6040516371c1551560e01b8152600490fd5b604051631761614960e11b8152806107388560048301610541565b9061304f81611eef565b60ff80198354169116179055565b906128659061306b81611eef565b825461ff00191660089190911b61ff00161790565b60076101206107fd9361309481518561280a565b6130a560208201516001860161280a565b6130b660408201516002860161280a565b6130e8600385016130d460608401516130ce81611eef565b82613045565b6080830151906130e382611eef565b61305d565b60a0810151600485015560c081015160058501556131416006850161312561311360e0850151151590565b829060ff801983541691151516179055565b610100830151815461ff00191690151560081b61ff0016179055565b0151910161280a565b61315381611eef565b6000526016602052604060002090565b60175490600160401b8210156107af57600182018060175582101561292c576107fd9160176000527fc624b66cc0138b8fabc209247f72d758e1cf3343756d543badbf24212bed8c150161280a565b8054600160401b8110156107af576131cf91600182018155612931565b9190916131df576107fd9161280a565b634e487b7160e01b600052600060045260246000fd5b61320d6040929594939560608352606083019061051c565b9461321781611eef565b602082015261322583611eef565b0152565b6001600160a01b0316801561324957600052600360205260406000205490565b6040516322718ad960e21b815260006004820152602490fd5b9081602091031261039957516105528161043c565b6001600160a01b03166000908152600f6020526040902061329791610de2565b54151590565b6000818152600260205260409020546001600160a01b03169081156132c0575090565b60249060405190637e27328960e01b82526004820152fd5b3360009081527f28716b1ac0502292c83929abc9e37796cf2f7a586c58ec02e6ceeac1b694cbc360205260409020600080516020613c338339815191529060ff905b5416156133245750565b6044906040519063e2517d3f60e01b82523360048301526024820152fd5b3360009081527f13649b2456f1b42fef0f0040b3aaeabcd21a76a0f3f5defd4f583839455116e8602052604090205460ff161561337b57565b60405163e2517d3f60e01b815233600482015260006024820152604490fd5b6000818152600c60209081526040808320338452909152902060ff9061331a565b60ff600b5460a01c166133ca57565b60405163d93c066560e01b8152600490fd5b9190604051906133eb826107b4565b6000808352936001600160a01b0380821680156135285761340a6133bb565b838752600260205260408720546001600160a01b0316918216801592831593846134fa575b6001600160a01b038616600090815260036020526040902060018154019055613466866106ff896000526002602052604060002090565b8684847fddf252ad1be2c89b69c2b068fc378daa952ba7f163c4a11628f55a4df523b3ef8d80a4156134da575061349c85613aba565b036134cb575b6134b2576107fd93945033613895565b6040516339e3563760e11b815260048101869052602490fd5b6134d58383613b12565b6134a2565b858383036134ea575b505061349c565b6134f391613a4a565b38856134e3565b61350387613a26565b6001600160a01b0382166000908152600360205260409020805460001901905561342f565b604051633250574960e11b815260048101889052602490fd5b60209061357b7ff8e1a15aba9398e019f0b49df1a4fde98ee17ae345cb5f6b5e2c27f5033e8ce79382600052600a8452604060002061280a565b604051908152a1565b9196909497939795929561359f610933600661092b86610d96565b806135fc575b6135b5575b505050505050505050565b7f22a253d5e2e88ba35bbe57f168cc28e60a8f13b25396d21aeceeaff1949fa8cc976135eb95612fe495612faa93612f546107f0565b0390a23880808080808080806135aa565b50825115156135a5565b6001600160a01b03811660009081527f28716b1ac0502292c83929abc9e37796cf2f7a586c58ec02e6ceeac1b694cbc360205260408120600080516020613c338339815191529060ff905b54166136b957808252600c602090815260408084206001600160a01b038616600090815292529020805460ff1916600117905533926001600160a01b0316917f2f8788117e7eff1d82e926ec794901d17c78024a50270940304540a733656f0d9080a4600190565b50905090565b600090808252600c60205260ff61365184604085209060018060a01b0316600052602052604060002090565b6001600160a01b03811660009081527f28716b1ac0502292c83929abc9e37796cf2f7a586c58ec02e6ceeac1b694cbc360205260408120600080516020613c338339815191529060ff905b5416156136b957808252600c602090815260408084206001600160a01b038616600090815292529020805460ff1916905533926001600160a01b0316917ff6391f5c32d9c69d2a47ea670b442974b53935d1edc7fd64eb21e047a839171b9080a4600190565b600090808252600c60205260ff61373684604085209060018060a01b0316600052602052604060002090565b600b546001600160a01b031633036137dc57565b60405163118cdaa760e01b8152336004820152602490fd5b90816020910312610399575161055281610387565b610552939260809260018060a01b03168252600060208301526040820152816060820152019061051c565b6001600160a01b0391821681529116602082015260408101919091526080606082018190526105529291019061051c565b3d15613890573d90613876826107ff565b9161388460405193846107cf565b82523d6000602084013e565b606090565b91929092833b6138a6575b50505050565b6138ca916020916040519384928392630a85bd0160e11b9788855260048501613809565b038160006001600160a01b0388165af16000918161395e575b5061392257826138f1613865565b805191908261391b57604051633250574960e11b81526001600160a01b0383166004820152602490fd5b6020915001fd5b6001600160e01b0319160361393b5750388080806138a0565b604051633250574960e11b81526001600160a01b03919091166004820152602490fd5b61398191925060203d602011613988575b61397981836107cf565b8101906137f4565b90386138e3565b503d61396f565b92939193843b6139a1575b5050505050565b6020916139c46040519485938493630a85bd0160e11b9889865260048601613834565b038160006001600160a01b0388165af160009181613a05575b506139eb57826138f1613865565b6001600160e01b0319160361393b5750388080808061399a565b613a1f91925060203d6020116139885761397981836107cf565b90386139dd565b613a3a906000526004602052604060002090565b80546001600160a01b0319169055565b90613a5482613229565b9160009282845260209060078252604093848620549360018060a01b031686526006835284862093828103613a98575b508552600782528484812055845252812055565b8287528484528587205481885280878920558752600784528587205538613a84565b60085481600052600960205280604060002055600160401b8110156107af57600181018060085581101561292c5760086000527ff3f7a9fe364faab93b216da50a3214154f22a0a2b415b23a84c8169e8b636ee30155565b90613b1c82613229565b6000198101929083116104f4576001600160a01b031660009081526006602090815260408083208584528252808320849055928252600790522055565b6001600160a01b03908282168015159081613bc4575b5015613b7b5750505050565b16613b9957604051637e27328960e01b815260048101839052602490fd5b60405163177e802f60e01b81526001600160a01b039190911660048201526024810191909152604490fd5b82841680821492508215613bfc575b508115613be2575b5038613b6f565b905084600052600460205282604060002054161438613bdb565b909150600052600560205260ff613c298560406000209060018060a01b0316600052602052604060002090565b54169038613bd356fe9f2df0fed2c77648de5860a4cc508cd0818c85b8b8a1ab4ceeef8d981c8956a6a26469706673582212209630ae17d116acf25008b7d42ea684c283f37419226e5491727a304698002f5064736f6c634300081900332f8788117e7eff1d82e926ec794901d17c78024a50270940304540a733656f0d",
    "linkReferences": {}
  },
  "methodIdentifiers": {
    "DEFAULT_ADMIN_ROLE()": "a217fddf",
    "MINTER_ROLE()": "d5391393",
    "achievementRequirements(string)": "28b6212d",
    "achievements(string)": "e9537107",
    "approve(address,uint256)": "095ea7b3",
    "balanceOf(address)": "70a08231",
    "batchCreateAchievements(string[],string[],string[],uint8[],uint8[],uint256[],uint256[],uint256[],string[])": "1617f293",
    "batchMintAchievements(address,string[])": "18416d0e",
    "createAchievement(string,string,string,uint8,uint8,uint256,uint256,uint256,string)": "48d3904a",
    "getAchievementStats()": "a31ea184",
    "getAchievementsByCategory(uint8)": "8e72863e",
    "getAllAchievements(uint256,uint256)": "22c0be17",
    "getApproved(uint256)": "081812fc",
    "getRecentMints()": "8e808bf1",
    "getRoleAdmin(bytes32)": "248a9ca3",
    "getUserAchievementDetails(address,uint256)": "f1264b67",
    "getUserAchievementStats(address)": "0645f747",
    "getUserAchievementToken(address,string)": "95f3679e",
    "getUserAchievements(address)": "f09153c4",
    "grantMinterRole(address)": "3dd1eb61",
    "grantRole(bytes32,address)": "2f2ff15d",
    "hasAchievement(address,string)": "b9a626ed",
    "hasRole(bytes32,address)": "91d14854",
    "incrementUserProgress(address,string,uint256)": "3512a2c2",
    "isApprovedForAll(address,address)": "e985e9c5",
    "mintAchievement(address,string)": "0fc7e0c3",
    "name()": "06fdde03",
    "owner()": "8da5cb5b",
    "ownerOf(uint256)": "6352211e",
    "pause()": "8456cb59",
    "paused()": "5c975abb",
    "renounceOwnership()": "715018a6",
    "renounceRole(bytes32,address)": "36568abe",
    "revokeMinterRole(address)": "69e2f0fb",
    "revokeRole(bytes32,address)": "d547741f",
    "safeTransferFrom(address,address,uint256)": "42842e0e",
    "safeTransferFrom(address,address,uint256,bytes)": "b88d4fde",
    "setApprovalForAll(address,bool)": "a22cb465",
    "supportsInterface(bytes4)": "01ffc9a7",
    "symbol()": "95d89b41",
    "toggleAchievementActive(string)": "5cd17891",
    "tokenAchievementId(uint256)": "ad5e93f4",
    "tokenByIndex(uint256)": "4f6ccce7",
    "tokenOfOwnerByIndex(address,uint256)": "2f745c59",
    "tokenURI(uint256)": "c87b56dd",
    "totalSupply()": "18160ddd",
    "transferFrom(address,address,uint256)": "23b872dd",
    "transferOwnership(address)": "f2fde38b",
    "unpause()": "3f4ba83a",
    "updateAchievementMetadata(string,string)": "f7f41045",
    "updateUserProgress(address,string,uint256)": "12aeff08",
    "userAchievements(address,string)": "1c4de562",
    "userProgress(address,string)": "4aab3812",
    "userTotalCombatPower(address)": "c4c0fb98",
    "userTotalXP(address)": "f250086f"
  },
  "id": 47
}